:020000040800F2
:100000000080012095570008611800086F1800084B
:10001000751800087B18000881180008000000000F
:100020000000000000000000000000008718000829
:100030009518000800000000A5180008C518000861
:10004000E5570008E5570008E5570008E5570008A0
:10005000E5570008E5570008E5570008E557000890
:10006000E5570008E5570008E5570008E557000880
:10007000E5570008E5570008E5570008E557000870
:10008000E5570008E5570008E5570008E557000860
:10009000E5570008E5570008E5570008E557000850
:1000A000E5570008E5570008E5570008E557000840
:1000B000D5180008E5570008E5570008E55700087F
:1000C000E5570008E5570008E5570008E557000820
:1000D000E5570008E5570008E5570008E557000810
:1000E000E5570008E5570008E5570008E557000800
:1000F000E5570008E5570008E5570008E5570008F0
:10010000E5570008E5570008E5570008E5570008DF
:10011000E9180008E5570008E5570008E55700080A
:10012000E5570008E5570008E5570008E5570008BF
:10013000E5570008E5570008E5570008E5570008AF
:10014000E5570008E5570008E5570008E55700089F
:10015000E5570008E5570008E5570008E55700088F
:10016000E5570008E5570008E5570008E55700087F
:10017000E5570008E5570008E557000800000000B3
:08018000E5570008E5570008EF
:1001900001F0FF01102A2BDB10F0070F08D010F838
:1001A000013B013A8B422DD010F0070F42B3F6D13C
:1001B000F0B441EA012141EA014122F007047FF055
:1001C00000070023F0E80256083C85EA010586EAAC
:1001D000010685FA47F5A3FA87F586FA47F6A5FAE8
:1001E00087F68EB9EED1F0BC01F0FF0102F00702F4
:1001F00032B110F8013B013A83EA010313B1F8D19F
:100200000020704701387047002D06BF354603387F
:10021000073815F0010F07D1013015F4807F02BFB8
:10022000013015F4C03F0130F0BC0138704700BF09
:1002300081F0004102E000BF83F0004330B54FEA97
:1002400041044FEA430594EA050F08BF90EA020F04
:100250001FBF54EA000C55EA020C7FEA645C7FEA97
:10026000655C00F0E2804FEA5454D4EB5555B8BFBA
:100270006D420CDD2C4480EA020281EA030382EA2B
:10028000000083EA010180EA020281EA0303362DBD
:1002900088BF30BD11F0004F4FEA01314FF4801C90
:1002A0004CEA113102D0404261EB410113F0004FA2
:1002B0004FEA03334CEA133302D0524263EB430359
:1002C00094EA050F00F0A780A4F10104D5F1200EF7
:1002D0000DDB02FA0EFC22FA05F2801841F1000152
:1002E00003FA0EF2801843FA05F359410EE0A5F126
:1002F00020050EF1200E012A03FA0EFC28BF4CF057
:10030000020C43FA05F3C01851EBE37101F000450C
:1003100007D54FF0000EDCF1000C7EEB00006EEB19
:100320000101B1F5801F1BD3B1F5001F0CD34908A3
:100330005FEA30004FEA3C0C04F101044FEA4452FA
:1003400012F5800F80F09A80BCF1004F08BF5FEA81
:10035000500C50F1000041EB045141EA050130BD61
:100360005FEA4C0C404141EB010111F4801FA4F104
:100370000104E9D191F0000F04BF01460020B1FA59
:1003800081F308BF2033A3F10B03B3F120020CDA91
:100390000C3208DD02F1140CC2F10C0201FA0CF06F
:1003A00021FA02F10CE002F11402D8BFC2F1200CD4
:1003B00001FA02F120FA0CFCDCBF41EA0C0190408A
:1003C000E41AA2BF01EB0451294330BD6FEA0404D3
:1003D0001F3C1CDA0C340EDC04F11404C4F12002BE
:1003E00020FA04F001FA02F340EA030021FA04F3D0
:1003F00045EA030130BDC4F10C04C4F1200220FA27
:1004000002F001FA04F340EA0300294630BD21FA64
:1004100004F0294630BD94F0000F83F4801306BF2A
:1004200081F480110134013D4EE77FEA645C18BF1E
:100430007FEA655C29D094EA050F08BF90EA020FB5
:1004400005D054EA000C04BF1946104630BD91EAAD
:10045000030F1EBF0021002030BD5FEA545C05D1B0
:100460004000494128BF41F0004130BD14F58004EF
:100470003CBF01F5801130BD01F0004545F0FE4163
:1004800041F470014FF0000030BD7FEA645C1ABF98
:10049000194610467FEA655C1CBF0B46024650EACF
:1004A000013406BF52EA033591EA030F41F40021FB
:1004B00030BD00BF90F0000F04BF0021704730B581
:1004C0004FF4806404F132044FF000054FF0000156
:1004D00050E700BF90F0000F04BF0021704730B517
:1004E0004FF4806404F1320410F0004548BF4042EC
:1004F0004FF000013EE700BF42004FEAE2014FEA41
:1005000031014FEA02701FBF12F07F4393F07F4F1B
:1005100081F06051704792F0000F14BF93F07F4F4D
:10052000704730B54FF4607401F0004521F0004190
:1005300020E700BF50EA010208BF704730B54FF016
:1005400000050AE050EA010208BF704730B511F01B
:10055000004502D5404261EB41014FF4806404F153
:1005600032045FEA915C3FF4DCAE4FF003025FEAD5
:10057000DC0C18BF03325FEADC0C18BF033202EB5D
:10058000DC02C2F1200300FA03FC20FA02F001FAB7
:1005900003FE40EA0E0021FA02F11444C1E600BF56
:1005A00070B54FF0FF0C4CF4E06C1CEA11541DBF09
:1005B0001CEA135594EA0C0F95EA0C0F00F0DEF8D4
:1005C0002C4481EA030621EA4C5123EA4C5350EAB9
:1005D000013518BF52EA033541F4801143F480130A
:1005E00038D0A0FB02CE4FF00005E1FB02E506F09B
:1005F0000042E0FB03E54FF00006E1FB03569CF0F0
:10060000000F18BF4EF0010EA4F1FF04B6F5007FF5
:1006100064F5407404D25FEA4E0E6D4146EB060667
:1006200042EAC62141EA55514FEAC52040EA5E50F0
:100630004FEACE2EB4F1FD0C88BFBCF5E06F1ED89A
:10064000BEF1004F08BF5FEA500E50F1000041EBD1
:10065000045170BD06F0004646EA010140EA02007E
:1006600081EA0301B4EB5C04C2BFD4EB0C0541EAA0
:10067000045170BD41F480114FF0000E013C00F3B5
:10068000AB8014F1360FDEBF002001F0004170BDD9
:10069000C4F10004203C35DA0C341BDC04F11404F2
:1006A000C4F1200500FA05F320FA04F001FA05F27E
:1006B00040EA020001F0004221F0004110EBD3704B
:1006C00021FA04F642EB06015EEA430E08BF20EA77
:1006D000D37070BDC4F10C04C4F1200500FA04F31A
:1006E00020FA05F001FA04F240EA020001F00041AC
:1006F00010EBD37041F100015EEA430E08BF20EA1F
:10070000D37070BDC4F1200500FA05F24EEA020E66
:1007100020FA04F301FA05F243EA020321FA04F095
:1007200001F0004121FA04F220EA020000EBD3704C
:100730005EEA430E08BF20EAD37070BD94F0000F4C
:100740000FD101F00046400041EB010111F4801F80
:1007500008BF013CF7D041EA060195F0000F18BF31
:10076000704703F00046520043EB030313F4801F6D
:1007700008BF013DF7D043EA0603704794EA0C0F27
:100780000CEA135518BF95EA0C0F0CD050EA41063D
:1007900018BF52EA4306D1D181EA030101F00041BA
:1007A0004FF0000070BD50EA410606BF10461946E2
:1007B00052EA430619D094EA0C0F02D150EA0136EE
:1007C00013D195EA0C0F05D152EA03361CBF10462F
:1007D00019460AD181EA030101F0004141F0FE41CE
:1007E00041F470014FF0000070BD41F0FE4141F452
:1007F000780170BD70B54FF0FF0C4CF4E06C1CEA52
:1008000011541DBF1CEA135594EA0C0F95EA0C0F06
:1008100000F0A7F8A4EB050481EA030E52EA0335C1
:100820004FEA013100F088804FEA03334FF08055E2
:1008300045EA131343EA12634FEA022245EA11150F
:1008400045EA10654FEA00260EF000419D4208BFC0
:10085000964244F1FD0404F5407402D25B084FEA6D
:100860003202B61A65EB03055B084FEA32024FF419
:1008700080104FF4002CB6EB020E75EB030E22BF76
:10088000B61A754640EA0C005B084FEA3202B6EB36
:10089000020E75EB030E22BFB61A754640EA5C00E5
:1008A0005B084FEA3202B6EB020E75EB030E22BF75
:1008B000B61A754640EA9C005B084FEA3202B6EB76
:1008C000020E75EB030E22BFB61A754640EADC0035
:1008D00055EA060E18D04FEA051545EA16754FEA97
:1008E00006164FEAC30343EA52734FEAC2025FEAB5
:1008F0001C1CC0D111F4801F0BD141EA00014FF044
:1009000000004FF0004CB6E711F4801F04BF014314
:100910000020B4F1FD0C88BFBCF5E06F3FF6AFAE30
:10092000B5EB030C04BFB6EB020C5FEA500C50F1C0
:10093000000041EB045170BD0EF0004E4EEA113143
:1009400014EB5C04C2BFD4EB0C0541EA045170BD4A
:1009500041F480114FF0000E013C90E645EA060E8E
:100960008DE60CEA135594EA0C0F08BF95EA0C0FBC
:100970003FF43BAF94EA0C0F0AD150EA01347FF404
:1009800034AF95EA0C0F7FF425AF104619462CE7DB
:1009900095EA0C0F06D152EA03353FF4FDAE10463E
:1009A000194622E750EA410618BF52EA43067FF48F
:1009B000C5AE50EA41047FF40DAF52EA43057FF41F
:1009C000EBAE12E74FF0FF3C06E000BF4FF0010C2A
:1009D00002E000BF4FF0010C4DF804CD4FEA410C8E
:1009E0007FEA6C5C4FEA430C18BF7FEA6C5C1BD05B
:1009F00001B050EA410C0CBF52EA430C91EA030FDC
:100A000002BF90EA020F0020704710F1000F91EA38
:100A1000030F58BF994208BF90422CBFD8176FEA06
:100A2000E37040F0010070474FEA410C7FEA6C5CD4
:100A300002D150EA013C07D14FEA430C7FEA6C5CDB
:100A4000D6D152EA033CD3D05DF8040B704700BF07
:100A50008446104662468C461946634600E000BF55
:100A600001B5FFF7B7FF002848BF10F1000F01BD27
:100A70004DF808EDFFF7F4FF0CBF012000205DF8F2
:100A800008FB00BF4DF808EDFFF7EAFF34BF012077
:100A900000205DF808FB00BF4DF808EDFFF7E0FF10
:100AA00094BF012000205DF808FB00BF4DF808ED61
:100AB000FFF7CEFF94BF012000205DF808FB00BFC8
:100AC0004DF808EDFFF7C4FF34BF012000205DF8AA
:100AD00008FB00BF4FEA410C7FEA6C5C02D150EA90
:100AE000013C0AD14FEA430C7FEA6C5C02D152EA26
:100AF000033C02D14FF0000070474FF001007047F7
:100B000053B94AB9002908BF00281CBF4FF0FF3174
:100B10004FF0FF3000F00CB8ADF1080C6DE904CED9
:100B200006F038F9DDF804E0DDE9022304B070478F
:100B3000704700BF4A0011D212F5001211D20DD534
:100B40006FF47873B3EB62520ED44FEAC12343F0D3
:100B5000004343EA505323FA02F070474FF000007D
:100B6000704750EA013002D14FF0FF3070474FF02C
:100B70000000704710B5054C227832B9044B13B110
:100B80000448AFF300800123237010BD70000020E3
:100B90000000000058700008074B10B51BB1074952
:100BA0000748AFF300800748036823B1064B13B131
:100BB000BDE81040184710BD000000007400002080
:100BC00058700008700000200000000080B582B05E
:100BD00000AF1E4A1D4B1B6E43F0010313661B4BF7
:100BE0001B6E03F001037B607B68032003F05AFF58
:100BF000002200216FF00B0003F05FFF00220021B4
:100C00006FF00A0003F059FF002200216FF0090085
:100C100003F053FF002200216FF0040003F04DFFAA
:100C2000002200216FF0030003F047FF00220021A3
:100C30006FF0010003F041FF002200214FF0FF3070
:100C400003F03BFF00BF0837BD4680BD00100240E7
:100C500080B500AF144B154A1A60134B4FF4E132C4
:100C60005A60114B00229A600F4B0022DA600E4B43
:100C700000221A610C4B0C225A610B4B00229A6124
:100C8000094B0022DA61084B00221A62064B00224F
:100C90005A62054802F040FA0346002B01D000F0EA
:100CA00067FB00BF80BD00BFEC100020004C00407F
:100CB00080B588B000AF78607B681B68154A9342A6
:100CC00024D1154A144B9B6D43F400239365124BBA
:100CD0009B6D03F40023BB60BB680323FB6002230E
:100CE0003B6101237B610323BB610823FB6107F1A7
:100CF0000C0319464FF0904002F04AF80022002100
:100D0000342003F0DAFE342003F0F3FE00BF203776
:100D1000BD4680BD004C004000100240B0B590B010
:100D200000AFF860B9607A6007F11003202200215B
:100D3000184604F07DFD7B685BB23B7407F130031D
:100D400000221A605A6007F130033B6207F1380352
:100D500000221A605A6007F138037B62BB68FB62AD
:100D6000FB681D4607F110040FCC0FC594E80F0077
:100D700085E80F00F8684037BD46B0BD80B483B049
:100D800000AF786039607B68002B02D03B68002B95
:100D900001D100231FE07B689A697B68DB699A4276
:100DA00001D1002317E07B689B69002B06D17B688B
:100DB0003A681A617B683A685A6106E07B685B6949
:100DC0003A685A607B683A685A617B689B695A1C2A
:100DD0007B689A61012318460C37BD465DF8047B99
:100DE000704780B584B000AF7860786800F017F87D
:100DF0000346002B01D000230DE07B681B69FB60DC
:100E00007B681B695A687B681A617B689B695A1EFC
:100E10007B689A61FB6818461037BD4680BD80B478
:100E200083B000AF78607B68002B01D1002306E01F
:100E30007B689B69002B01D1012300E00023184649
:100E40000C37BD465DF8047B704790B486B000AFA8
:100E5000786039603B685BB23B7297F908303B724F
:100E60004FF000034FF00004C7E90434D7E904341D
:100E7000C7E904347B681C4607F108030FCB84E8FC
:100E80000F0078681837BD4690BC704790B484B0A6
:100E900000AFF860C7E90023FB68002B01D10023F5
:100EA0001CE0FB6893F90030DBB2013BDBB25AB2C5
:100EB000FB681A70FB6893F90030002B0DDAFB68B1
:100EC000D3E90212D7E9003443EA010344EA0204F9
:100ED000FA68C2E90234012300E002231846103701
:100EE000BD4690BC7047000090B58BB002AF7860F3
:100EF0007B6893F90030DBB20133DBB25AB27B6816
:100F00001A707B6893F90030002B45DC7B68D3E9CD
:100F10000234C7E90634D7E90601FFF70BFB0346A5
:100F20000C4644EC103B05F03DFC51EC100B1EA3AD
:100F3000D3E90023FFF75EFC03460C461846214622
:100F400005F004FF03460C46C7E904344FF00003E4
:100F50004FF00044C7E902347B68D3E90212D7E9B5
:100F600002346FEA03036FEA040403EA010304EAAC
:100F700002047A68C2E9023472B64FF000034FF0FF
:100F80000004CDE900344FF000024FF00003D7E930
:100F9000040100F04FFE62B6022318462437BD4616
:100FA00090BD00BFAFF30080EF39FAFE422EE63F5E
:100FB00090B59FB00CAF03F049FE00F013F900F0BC
:100FC00001FD00F0E9FB00F00DF9FFF741FE012201
:100FD0007449754802F07EF9744804F023FD07F166
:100FE000380303211846FFF730FF07F118030222E8
:100FF00003211846FFF792FE3B46184600F07EFCA0
:1010000000230A930023099307F1380308934FF054
:1010100000034FF00004CDE906344FF000034FF019
:101020000004CDE904344FF005034FF00004CDE98E
:1010300002345F4B00934FF00B024FF000035D480A
:1010400000F098FD00230A933B4609930023089380
:101050004FF000034FF00004CDE906344FF00003D9
:101060004FF00004CDE904344FF006034FF00004C4
:10107000CDE90234504B00934FF015024FF00003BE
:101080004E4800F077FD00230A933B460993002366
:1010900008934FF000034FF00004CDE906344FF001
:1010A00000034FF00004CDE904344FF007034FF084
:1010B0000004CDE90234424B00934FF01F024FF081
:1010C0000003404800F056FD07F118030A9300237F
:1010D0000993002308934FF000034FF00004CDE97B
:1010E00006344FF000034FF00004CDE904344FF014
:1010F00008034FF00004CDE90234334B00934FF066
:1011000029024FF00003314800F034FD07F11803C5
:101110000A9300230993002308934FF000034FF034
:101120000004CDE906344FF000034FF00004CDE990
:1011300004344FF009034FF00004CDE90234244B8E
:1011400000934FF033024FF00003224800F012FDED
:1011500000230A930023099307F1380308934FF003
:1011600000034FF00004CDE906344FF000034FF0C8
:101170000004CDE904344FF004034FF00004CDE93E
:101180000234154B00934FF002024FF00003134856
:1011900000F0F0FC42F2107303221149024802F001
:1011A0000CF8FEE75C110020EC10002070700008C5
:1011B000A011002069140008F01100205915000842
:1011C000601300205D160008E0120020B51600082C
:1011D0005012002011170008601100207913000838
:1011E0008C70000880B5BAB000AF1023C7F8A430E7
:1011F0000123C7F8BC300023C7F8C0306023C7F80C
:10120000C4300023C7F8CC3007F1A403184600F01F
:101210002BFF0346002B01D000F0AAF80F23C7F8DC
:1012200090300023C7F894300023C7F8983000238B
:10123000C7F89C300023C7F8A03007F190030021C5
:10124000184601F097FA0346002B01D000F090F801
:101250000823BB600023FB6407F10803184603F072
:1012600039FD0346002B01D000F082F8154A154BDA
:101270009B6D43F080539365124B9B6D03F080533D
:101280007B607B684FF4007003F0ECFA0346002BA0
:1012900001D000F06DF801F089FC02460A4BA3FB77
:1012A00002239B09184603F032FC042003F03CFCA7
:1012B000002200214FF0FF3003F0FFFB00BFE837B2
:1012C000BD4680BD00100240D34D621090B585B080
:1012D00002AF786001221F491F4801F0FBFF1F4B3E
:1012E0001B781A461E491F4804F0B4FB42F21073E3
:1012F00014221C49184801F060FF42F210730222C8
:101300001949154801F059FF144B1B780133DAB223
:10131000124B1A700F4B1B78312B16D142F21073FF
:10132000082212490C4801F048FF4FF000034FF02B
:101330000004CDE900344FF000024FF000034FF0FD
:1013400002004FF0000100F075FC00BF0C37BD46F5
:1013500090BD00BF5C110020EC100020A000002018
:10136000907000088C000020A0700008A470000895
:1013700080B400AFFEE7000090B587B000AF3C46F8
:1013800084E80F004FF002024FF00003B86AFFF745
:101390007DFD0346FB75282200212B4804F048FA06
:1013A00002232A4A2A49284804F054FB42F21073C7
:1013B00028222549274801F000FFFB7D022B2ED172
:1013C00028220021204804F033FA022222491E4834
:1013D00004F040FB42F2107328221B491D4801F023
:1013E000ECFE002280211D4801F07EFE4FF47A7051
:1013F00000F0B8F9B86AFFF777FD282200211248FB
:1014000004F016FA022216490F4804F023FB42F2B8
:10141000107328220C490F4801F0CFFE10E028225B
:101420000021094804F004FA02220E49064804F09B
:1014300011FB42F2107328220349064801F0BDFE59
:1014400000BF1C37BD4690BDA4000020B07000084E
:10145000CC700008EC100020D8700008000800488C
:10146000F47000081071000890B587B000AF3C46DA
:1014700084E80F004FF00B024FF00003B86AFFF74B
:1014800005FD0346FB75282200212B4804F0D0F906
:101490000B232A4A2A49284804F0DCFA42F2107346
:1014A00028222549274801F088FEFB7D022B2ED1FA
:1014B00028220021204804F0BBF90B2222491E48B3
:1014C00004F0C8FA42F2107328221B491D4801F0AB
:1014D00074FE012280211D4801F006FE4FF47A704F
:1014E00000F040F9B86AFFF7FFFC282200211248FB
:1014F00004F09EF90B2216490F4804F0ABFA42F2B1
:10150000107328220C490F4801F057FE10E02822E2
:101510000021094804F08CF90B220E49064804F01A
:1015200099FA42F2107328220349064801F045FE59
:1015300000BF1C37BD4690BDA4000020B07000085D
:10154000CC700008EC100020D8700008000800489B
:10155000F47000081071000890B587B000AF3C46E9
:1015600084E80F00F96A4FF015024FF000030846B7
:10157000FFF78CFC0346FB75282200212F4804F05E
:1015800057F915232E4A2F492C4804F063FA42F2EA
:101590001073282229492C4801F00FFEFB7D022BF5
:1015A00037D128220021254804F042F91522274985
:1015B000224804F04FFA42F2107328221F492248B1
:1015C00001F0FBFD0323BB75BB7D1946F86A00F0F3
:1015D000B4F900224FF400711D4801F085FD4FF46D
:1015E0007A7000F0BFF8FB6A1846FFF77DFC2822EE
:1015F0000021124804F01CF9152216490F4804F086
:1016000029FA42F2107328220C490F4801F0D5FD47
:1016100010E028220021094804F00AF915220E4999
:10162000064804F017FA42F21073282203490648CC
:1016300001F0C3FD00BF1C37BD4690BDA4000020D3
:101640002C710008CC700008EC10002048710008D4
:1016500000080048647100087C71000890B587B0EC
:1016600000AF3C4684E80F00F96A4FF01F024FF0CC
:1016700000030846FFF70AFC0346FB75FB7D022BBF
:1016800011D1F86A00F07EF90346BB75BB7D032BD0
:1016900005D101224FF40071054801F025FDFB6AD8
:1016A0001846FFF721FC00BF1C37BD4690BD00BFA8
:1016B0000008004890B589B000AF3C4684E80F00B0
:1016C000B96B4FF029024FF000030846FFF7DEFB2D
:1016D0000346FB77FB7F022B14D10123BB77BB7F33
:1016E0003B750023BB6107F114031946B86BFFF784
:1016F00045FB00224021054801F0F6FCBB6B184673
:10170000FFF7F2FB00BF2437BD4690BD000800483C
:1017100090B587B000AF3C4684E80F00396B4FF0BE
:1017200033024FF000030846FFF7B0FB0346FB759A
:10173000FB7D022B10D1386BFFF753FB38613B69FF
:101740001B78012B04D101224021054801F0CCFC7B
:101750003B6B1846FFF7C8FB00BF1C37BD4690BD6A
:101760000008004880B485B000AF78600023FB60BB
:101770000023FB6002E0FB680133FB607B684FF4F1
:101780007A7202FB03F2FB689A42F4DC00BF143762
:10179000BD465DF8047B704780B588B000AF1D4B37
:1017A0004FF080421A601B4B4BF680325A60194B47
:1017B00000229A60174B40F2F312DA60154B0022B8
:1017C0001A61144802F0B1FC0346002B01D0FFF768
:1017D000CFFD4FF480533B6107F1100319460D48CC
:1017E00002F0D6FD0346002B01D0FFF7C1FD002318
:1017F0007B600023FB603B1D1946064803F0BEF9E1
:101800000346002B01D0FFF7B3FD00BF2037BD46D4
:1018100080BD00BFD013002080B584B000AF7860D9
:101820007B681B68B3F1804F13D10C4A0B4B9B6D47
:1018300043F001039365094B9B6D03F00103FB60CB
:10184000FB68002200211C2003F037F91C2003F064
:1018500050F900BF1037BD4680BD00BF00100240E8
:1018600080B400AF00BFBD465DF8047B704780B414
:1018700000AFFEE780B400AFFEE780B400AFFEE744
:1018800080B400AFFEE780B400AF00BFBD465DF896
:10189000047B704780B400AF00BFBD465DF8047B99
:1018A0007047000080B500AF054B1B680133044A48
:1018B000136072B600F080FA62B600BF80BD00BF50
:1018C0000C14002080B500AF03F0EAF903F048F9EA
:1018D00000BF80BD80B500AF024802F051FC00BFE0
:1018E00080BD00BFD013002080B500AF024801F0DA
:1018F00079FD00BF80BD00BFEC100020B0B489B0FE
:1019000000AF786001233B724FF000034FF00004FA
:10191000C7E9043400233B7600237B767B681D46B1
:1019200007F108040FCC0FC594E8030085E8030015
:1019300078682437BD46B0BC704780B483B000AF30
:1019400078600B46FB707B68002B01D1002313E00D
:101950007B685B7C002B01D000230DE07B685B7C07
:10196000002B08D1FA787B681A747B685B7C0133A2
:10197000DAB27B685A74012318460C37BD465DF80D
:10198000047B704780B485B000AF78600023FB73A0
:101990007B685B7C002B01D100230CE07B685B7CC7
:1019A000013BDAB27B685A747B681B7CFB737B68F3
:1019B00000221A74FB7B18461437BD465DF8047B81
:1019C0007047000080B58AB000AF654A644BDB6C9D
:1019D00043F00403D364624BDB6C03F004033B610C
:1019E0003B695F4A5E4BDB6C43F08003D3645C4B26
:1019F000DB6C03F08003FB60FB68594A584BDB6CDF
:101A000043F00103D364564BDB6C03F00103BB606E
:101A1000BB68534A524BDB6C43F00203D364504B18
:101A2000DB6C03F002037B607B684D4A4C4BDB6C44
:101A300043F00803D3644A4BDB6C03F008033B60BC
:101A40003B684FF400537B610023BB610023FB61C3
:101A500007F114031946434801F09AF94DF67F73D4
:101A60007B610323BB610023FB6107F1140319466B
:101A70003C4801F08DF903237B610323BB61002304
:101A8000FB6107F114031946374801F081F94FF65D
:101A9000FC537B610323BB610023FB6107F114034B
:101AA00019464FF0904001F073F94FF6BF737B6118
:101AB0000323BB610023FB6107F1140319462B4884
:101AC00001F066F980237B610123BB610023FB6188
:101AD00000233B6207F114031946224801F058F92C
:101AE0004FF400737B610123BB610023FB61002382
:101AF0003B6207F1140319464FF0904001F048F99A
:101B000004237B610323BB610023FB6107F1140302
:101B10001946174801F03CF940237B610123BB6162
:101B20000023FB6100233B6207F1140319460F48B1
:101B300001F02EF9002280210A4801F0D5FA002296
:101B40004FF400714FF0904001F0CEFA0022402196
:101B5000064801F0C9FA00BF2837BD4680BD00BF66
:101B60000010024000080048001C00480004004823
:101B7000000C004890B58FB004AFF860C7E90023AF
:101B8000D7E9003413F1FF3344F1FF349B01284AB5
:101B900013447B627B6AFA681A607B6ABA6B5A608C
:101BA0007A6AD7E91034C2E902347A6A4FF0000346
:101BB0004FF00004C2E904347A6A4FF000034FF09A
:101BC0000004C2E906347A6A4FF000034FF00004C3
:101BD000C2E908343B68013B012202FA03F34FEAF1
:101BE000E3747A6AC2E90A34D7E91234C7E90434E3
:101BF000D7E91434C7E906347B6ABA6D1A637B6A85
:101C0000FA6D5A637B6A3A6E9A637B6A1C687B6AD8
:101C10001B6B7A6A526B796A896B0291019200930D
:101C200007F110030FCBA04700BF2C37BD4690BD76
:101C3000E000002090B591B000AFC7E90201C7E90C
:101C4000002307F1140328220021184603F0F0FDB9
:101C500007F11400D7E902234F4903F0FBFE07F117
:101C6000140142F2107328224C4801F0A6FAD7E979
:101C7000023413F1FF3344F1FF349B01484A13440B
:101C8000FB6372B6FB6BD3E90812FB6BD3E902343A
:101C9000A24208BF99426DD2FB6B5A68FB6BD3E935
:101CA00004341B011A44D7E90034C2E90034FB6B49
:101CB0005A68FB6BD3E904341B011A44D7E9143486
:101CC000C2E90234FB6BD3E90434013344F100046C
:101CD000FA6BC2E90434FB6BD3E90412FB6BD3E962
:101CE0000234A24208BF994206D1FA6B4FF00003BA
:101CF0004FF00004C2E90434FB6BD3E9083401332C
:101D000044F10004FA6BC2E90834FB6BD3E90834F0
:101D1000002C08BF012B20D1FB6BD3E90A12214B09
:101D2000D3E9003443EA010344EA02041D4AC2E94C
:101D3000003400F041F81B4BD3E9003407F11400E4
:101D40001A462346184903F085FE07F1140142F2B2
:101D500010732822114801F030FA42F21073092260
:101D600012490E4801F029FA62B64FF001034FF014
:101D700000040BE042F2107309220D49074801F0FC
:101D80001CFA62B64FF000034FF0000418462146DB
:101D90004437BD4690BD00BF98710008EC1000208C
:101DA000E0000020D8000020B4710008D8710008BD
:101DB000E47100080000000090B59DB004AF884BAE
:101DC000D3E90034C7E91434864BD3E9003418460C
:101DD0002146FEF7AFFB03460C4644EC103B04F0F3
:101DE000E1FC51EC100B7CA3D3E90023FEF702FDCC
:101DF00003460C461846214604F0A8FF03460C464D
:101E0000C7E9163407F1240328220021184603F0FD
:101E10000FFDCEE007F1240328220021184603F02D
:101E200007FD07F12400D7E916236F4903F012FEDE
:101E300007F1240142F2107328226C4801F0BDF929
:101E4000D7E9163413F1FF3344F1FF349B01684A9C
:101E50001344FB64FB6C5A68FB6CD3E906341B012A
:101E6000134407F110040FCB84E80F00FB6CD3E997
:101E70000634013344F10004FA6CC2E90634FB6C09
:101E8000D3E90612FB6CD3E90234A24208BF99429F
:101E900006D1FA6C4FF000034FF00004C2E906349B
:101EA000FB6CD3E9083413F1FF3344F1FF34FA6CCF
:101EB000C2E90834FB6CD3E90834234310D1FB6C2E
:101EC000D3E90A346FEA03016FEA0402454BD3E910
:101ED000003403EA010304EA0204424AC2E900347E
:101EE0003F4AD7E91634C2E9003407F12403282217
:101EF0000021184603F09CFC07F12400D7E91623C3
:101F00003C4903F0A7FD07F1240142F21073282297
:101F1000364801F052F94FF000034FF00004C7E9D2
:101F200000344FF000034FF00004C7E90234FB6CAB
:101F30001C68FB6C1B6BFA6C526BF96C896B029121
:101F4000019200933B460FCBA04707F124032822C0
:101F50000021184603F06CFC07F12400D7E9162392
:101F6000254903F077FD07F1240142F2107328227E
:101F70001E4801F022F91B4BD3E9003418462146D4
:101F8000FEF7D8FA03460C4644EC103B04F00AFC7A
:101F900051EC100B10A3D3E90023FEF72BFC0346F2
:101FA0000C461846214604F0D1FE03460C46C7E90C
:101FB0001634D7E91634D7E91412A24208BF994261
:101FC000FFF428AF064AD7E91434C2E9003400BF51
:101FD0006437BD4690BD00BFEF39FAFE422EE63FA2
:101FE000D0000020D8000020F0710008EC10002084
:101FF000E0000020107200083072000880B400AFCA
:10200000174A174BD3F8883043F47003C2F888306E
:10201000144A144B1B6843F001031360114B002258
:102020009A60104A0F4B1B6823F0A85323F4102327
:1020300013600C4B4FF48052DA600A4A094B1B685C
:1020400023F480231360074B00229A61044B4FF066
:1020500000629A6000BFBD465DF8047B704700BF18
:1020600000ED00E00010024080B58CB000AF786059
:102070000023BB627B681B6803F01003002B00F099
:10208000DB80A24B9B6803F00C03002B40F08480A4
:102090009E4B1B6803F00203002B05D07B689B69F5
:1020A000002B01D101235FE37B681A6A974B1B6801
:1020B00003F00803002B04D0944B1B6803F0F003DB
:1020C00005E0924BD3F894301B0903F0F0039A42D9
:1020D00023D97B681B6A184600F0B8FD0346002B25
:1020E00001D0012340E3894A884B1B6843F0080371
:1020F00013608649854B1B6823F0F0027B681B6ADE
:1021000013430B608149814B5B6823F47F427B68FA
:10211000DB691B0213434B6022E07C4A7B4B1B684C
:1021200043F0080313607949784B1B6823F0F002F1
:102130007B681B6A13430B607449744B5B6823F420
:102140007F427B68DB691B0213434B607B681B6A21
:10215000184600F07BFD0346002B01D0012303E36A
:1021600000F02AFC0146694B9B6803F0F002F02363
:102170007B627B6A93FAA3F33B623B6AB3FA83F315
:1021800022FA03F3624AD35C21FA03F3614A136033
:10219000002002F069FD4FE07B689B69002B32D084
:1021A0005A4A5A4B1B6843F00103136002F086FD44
:1021B000B86208E002F082FD0246BB6AD31A022B25
:1021C00001D90323D0E2514B1B6803F00203002B1B
:1021D000F0D04E4A4D4B1B6843F0080313604B4947
:1021E0004A4B1B6823F0F0027B681B6A13430B60A9
:1021F0004649464B5B6823F47F427B68DB691B02E0
:1022000013434B6018E0414A404B1B6823F0010325
:10221000136002F053FDB86208E002F04FFD024681
:10222000BB6AD31A022B01D903239DE2374B1B68EB
:1022300003F00203002BF0D17B681B6803F001035D
:10224000002B7AD0314B9B6803F00C03082B0BD08A
:102250002E4B9B6803F00C030C2B11D12B4BDB682E
:1022600003F00303032B0BD1284B1B6803F400334B
:10227000002B61D07B685B68002B5DD1012373E28A
:102280007B685B68B3F5803F06D1204A1F4B1B6813
:1022900043F4803313601DE07B685B68B3F5A02FC7
:1022A0000CD11A4A194B1B6843F480231360174A58
:1022B000164B1B6843F4803313600BE0134A134B37
:1022C0001B6823F480331360104A104B1B6823F4FF
:1022D000802313607B685B68002B13D002F0EEFC58
:1022E000B86208E002F0EAFC0246BB6AD31A642B2B
:1022F00001D9032338E2054B1B6803F40033002B9C
:10230000F0D01AE002F0DAFCB8620EE000100240F1
:10231000507200080000002002F0D0FC0246BB6AA8
:10232000D31A642B01D903231EE2B04B1B6803F4BC
:102330000033002BF0D100E000BF7B681B6803F086
:102340000203002B7FD0A94B9B6803F00C03042BE6
:102350000BD0A64B9B6803F00C030C2B27D1A34B8F
:10236000DB6803F00303022B21D1A04B1B6803F4AD
:102370008063002B05D07B68DB68002B01D1012333
:10238000F2E19A48994B5B6823F0F8527B6819692F
:102390004FF0F853FB61FB6993FAA3F3BB61BB6990
:1023A000B3FA83F301FA03F3134343604BE07B6812
:1023B000DB68002B2ED08D4A8C4B1B6843F4807356
:1023C000136002F07BFCB86208E002F077FC024682
:1023D000BB6AD31A022B01D90323C5E1834B1B68C7
:1023E00003F48063002BF0D08048804B5B6823F0BF
:1023F000F8527B6819694FF0F8537B617B6993FA57
:10240000A3F33B613B69B3FA83F301FA03F313438C
:10241000436018E0754A754B1B6823F480731360A2
:1024200002F04CFCB86208E002F048FC0246BB6ACD
:10243000D31A022B01D9032396E16C4B1B6803F4DA
:102440008063002BF0D17B681B6803F00803002B2E
:102450003CD07B685B69002B1CD0644A634BD3F88B
:10246000943043F00103C2F8943002F027FCB862C4
:1024700008E002F023FC0246BB6AD31A022B01D902
:10248000032371E1594BD3F8943003F00203002B7E
:10249000EFD01BE0554A554BD3F8943023F001039D
:1024A000C2F8943002F00AFCB86208E002F006FCC0
:1024B0000246BB6AD31A022B01D9032354E14B4BCA
:1024C000D3F8943003F00203002BEFD17B681B6834
:1024D00003F00403002B00F0A980002387F82F30BD
:1024E000424B9B6D03F08053002B0ED13F4A3F4B74
:1024F0009B6D43F0805393653C4B9B6D03F0805381
:10250000FB60FB68012387F82F30394B1B6803F40D
:102510008073002B18D1364A354B1B6843F4807307
:10252000136002F0CBFBB86208E002F0C7FB024682
:10253000BB6AD31A022B01D9032315E12C4B1B686C
:1025400003F48073002BF0D07B689B68012B08D1CB
:10255000264A264BD3F8903043F00103C2F890305E
:1025600024E07B689B68052B10D1204A1F4BD3F8D1
:10257000903043F00403C2F890301C4A1B4BD3F850
:10258000903043F00103C2F890300FE0174A174B28
:10259000D3F8903023F00103C2F89030134A134B64
:1025A000D3F8903023F00403C2F890307B689B6826
:1025B000002B16D002F082FBB8620AE002F07EFB2C
:1025C0000246BB6AD31A41F28832934201D90323EF
:1025D000CAE0064BD3F8903003F00203002BEDD095
:1025E0001AE002F06BFBB8620FE000BF001002407F
:1025F0000070004002F062FB0246BB6AD31A41F24F
:102600008832934201D90323AEE0594BD3F890307E
:1026100003F00203002BEDD197F82F30012B05D1E9
:10262000534A534B9B6D23F0805393657B689B6AA1
:10263000002B00F098804E4B9B6803F00C030C2B92
:1026400000F08F807B689B6A022B56D1484A484B2A
:102650001B6823F08073136002F030FBB86208E05F
:1026600002F02CFB0246BB6AD31A022B01D90323CA
:102670007AE03F4B1B6803F00073002BF0D13C491C
:102680007B681B6B013B1A017B685B6B1B021A4367
:102690007B689B6B1B095B041A437B68DB6A1A43EC
:1026A0007B68DB6B5B08013B5B051A437B681B6C3B
:1026B0005B08013B5B061343CB602D4A2C4B1B6828
:1026C00043F0807313602A4A294BDB6843F0807320
:1026D000D36002F0F3FAB86208E002F0EFFA0246C3
:1026E000BB6AD31A022B01D903233DE0204B1B68A0
:1026F00003F00073002BF0D035E01D4A1C4B1B6823
:1027000023F0807313601A4B1B6803F00063002BE7
:102710000BD1174B1B6803F00053002B05D1144A53
:10272000134BDB6823F00303D360114A104BDB68C3
:1027300023F0887323F48033D36002F0BFFAB862C9
:1027400008E002F0BBFA0246BB6AD31A022B01D999
:10275000032309E0064B1B6803F00073002BF0D144
:1027600001E0012300E0002318463037BD4680BD5C
:102770000010024080B586B000AF78603960002359
:102780007B61894B1B6803F007023B689A4210D2B9
:102790008549854B1B6823F007023B6813430B6098
:1027A000814B1B6803F007023B689A4201D001236A
:1027B000F6E07B681B6803F00203002B08D07B491E
:1027C0007A4B9B6823F0F0027B689B6813438B6015
:1027D0007B681B6803F00103002B00F08E807B6890
:1027E0005B68022B07D1714B1B6803F40033002B8D
:1027F00021D10123D4E07B685B68032B07D16B4BAD
:102800001B6803F00073002B15D10123C8E07B681F
:102810005B68002B07D1654B1B6803F00203002B9C
:1028200009D10123BCE0614B1B6803F48063002BDA
:1028300001D10123B4E05D495C4B9B6823F00302A6
:102840007B685B6813438B6002F038FA78617B68C1
:102850005B68022B12D10AE002F030FA02467B6973
:10286000D31A41F28832934201D9032398E04F4BA7
:102870009B6803F00C03082BEED13EE07B685B689D
:10288000032B12D10AE002F019FA02467B69D31A2F
:1028900041F28832934201D9032381E0434B9B6884
:1028A00003F00C030C2BEED127E07B685B68002B58
:1028B0001DD10AE002F002FA02467B69D31A41F206
:1028C0008832934201D903236AE0384B9B6803F0B6
:1028D0000C03002BEED110E002F0F0F902467B6908
:1028E000D31A41F28832934201D9032358E02F4B87
:1028F0009B6803F00C03042BEED12B4B1B6803F0F9
:1029000007023B689A4210D92749274B1B6823F0DE
:1029100007023B6813430B60234B1B6803F007025D
:102920003B689A4201D001233AE07B681B6803F0C0
:102930000403002B08D01D491C4B9B6823F4E06264
:102940007B68DB6813438B607B681B6803F00803BC
:10295000002B09D01549154B9B6823F460527B6806
:102960001B69DB0013438B6000F026F801460F4B18
:102970009B6803F0F002F0233B613B6993FAA3F3F9
:10298000FB60FB68B3FA83F322FA03F3084AD35CD3
:1029900021FA03F3074A1360002002F065F90023CF
:1029A00018461837BD4680BD002002400010024086
:1029B000507200080000002080B495B000AF0023E2
:1029C000FB640023BB6400233B640223FB630223FC
:1029D000BB6300237B64714B9B6803F00C03002BEB
:1029E0000BD06E4B9B6803F00C030C2B3CD16B4B54
:1029F000DB6803F00303012B36D1684B1B6803F03F
:102A00000803002B12D1654BD3F8943003F47062A5
:102A10004FF470637B637B6B93FAA3F33B633B6B75
:102A2000B3FA83F322FA03F3FB640FE05B4B1B68FA
:102A300003F0F002F023FB62FB6A93FAA3F3BB629C
:102A4000BB6AB3FA83F322FA03F3FB64544AFB6CC8
:102A500052F82330FB64514B9B6803F00C03002BAE
:102A600013D1FB6C7B6410E04C4B9B6803F00C03B0
:102A7000042B02D14B4B7B6407E0484B9B6803F06F
:102A80000C03082B01D1484B7B64444B9B6803F03B
:102A90000C030C2B7BD1414BDB6803F003033B643D
:102AA0003E4BDB6803F0700270237B627B6A93FA13
:102AB000A3F33B623B6AB3FA83F322FA03F30133D5
:102AC000BB633B6C022B02D0032B18D02FE0354A9E
:102AD000BB6BB2FBF3F3314AD26802F4FE414FF410
:102AE000FE42FA61FA6992FAA2F2BA61BA69B2FADE
:102AF00082F221FA02F202FB03F3BB642FE02A4ABE
:102B0000BB6BB2FBF3F3254AD26802F4FE414FF4EB
:102B1000FE427A617A6992FAA2F23A613A69B2FAAD
:102B200082F221FA02F202FB03F3BB6417E0FA6CB3
:102B3000BB6BB2FBF3F3194AD26802F4FE414FF4C7
:102B4000FE42FA60FA6892FAA2F2BA60BA68B2FA81
:102B500082F221FA02F202FB03F3BB6400BF0F4BC7
:102B6000DB6803F0C0624FF0C0637B607B6893FA60
:102B7000A3F33B603B68B3FA83F322FA03F3013318
:102B80005B00FB63BA6CFB6BB2FBF3F37B647B6CA7
:102B900018465437BD465DF8047B7047001002406C
:102BA000687200080024F40000127A0080B400AFBC
:102BB000034B1B681846BD465DF8047B704700BF99
:102BC0000000002080B582B000AFFFF7EFFF0146A4
:102BD0000B4B9B6803F4E0624FF4E0637B607B681F
:102BE00093FAA3F33B603B68B3FA83F322FA03F34F
:102BF000044AD35C21FA03F318460837BD4680BD6A
:102C0000001002406072000880B582B000AFFFF78C
:102C1000CDFF01460B4B9B6803F460524FF46053A9
:102C20007B607B6893FAA3F33B603B68B3FA83F362
:102C300022FA03F3044AD35C21FA03F31846083757
:102C4000BD4680BD001002406072000880B586B0AD
:102C500000AF786000237B6100233B612A4B9B6DB2
:102C600003F08053002B03D001F0EEFD786114E0F7
:102C7000254A254B9B6D43F080539365224B9B6DFA
:102C800003F08053FB60FB6801F0DEFD78611E4AB3
:102C90001D4B9B6D23F0805393657B69B3F5007FDB
:102CA0000BD17B68802B19D97B68A02B02D902231A
:102CB0003B6113E001233B6110E07B68802B02D96C
:102CC00003233B610AE07B68802B02D102233B6136
:102CD00004E07B68702B01D101233B610B490B4B56
:102CE0001B6823F007023B6913430B60074B1B680B
:102CF00003F007023B699A4201D0012300E0002360
:102D000018461837BD4680BD001002400020024022
:102D100080B584B000AF78600023FB737B6893F8C4
:102D20002530DBB2022B05D07B680422DA63012355
:102D3000FB7327E07B681B687A681268126822F0D0
:102D40000E021A607B681B687A681268126822F0AB
:102D500001021A607B681B6C7A68526C012101FACF
:102D600002F25A607B68012283F825207B680022EA
:102D700083F824207B689B6B002B03D07B689B6BC4
:102D800078689847FB7B18461037BD4680BD000029
:102D900080B487B000AF7860396000237B61002386
:102DA000FB6000233B617FE13B681A6801217B697E
:102DB00001FA03F31340FB60FB68002B00F0718104
:102DC0003B685B68022B03D03B685B68122B23D106
:102DD0007B69DA087B68083253F822303B617B69F3
:102DE00003F007039B000F2202FA03F3DB433A6967
:102DF00013403B613B681A697B6903F007039B0042
:102E000002FA03F33A6913433B617B69DA087B6892
:102E10000832396943F822107B681B683B617B6983
:102E20005B00032202FA03F3DB433A6913403B6180
:102E30003B685B6803F003027B695B0002FA03F303
:102E40003A6913433B617B683A691A603B685B6887
:102E5000012B0BD03B685B68022B07D03B685B689B
:102E6000112B03D03B685B68122B30D17B689B68C9
:102E70003B617B695B00032202FA03F3DB433A699F
:102E800013403B613B68DA687B695B0002FA03F33D
:102E90003A6913433B617B683A699A607B685B6877
:102EA0003B6101227B6902FA03F3DB433A69134079
:102EB0003B613B685B681B0903F001027B6902FA16
:102EC00003F33A6913433B617B683A695A603B6894
:102ED0005B6803F00303032B18D17B68DB6A3B615B
:102EE00001227B6902FA03F3DB433A6913403B6139
:102EF0003B685B68DB0803F001027B6902FA03F3BD
:102F00003A6913433B617B683A69DA627B68DB6844
:102F10003B617B695B00032202FA03F3DB433A69FE
:102F200013403B613B689A687B695B0002FA03F3DC
:102F30003A6913433B617B683A69DA603B685B68D6
:102F400003F08053002B00F0AC805E4A5D4B1B6E9B
:102F500043F0010313665B4B1B6E03F00103BB6080
:102F6000BB68594A7B699B08023352F823303B61A6
:102F70007B6903F003039B000F2202FA03F3DB4398
:102F80003A6913403B617B68B3F1904F25D07B6871
:102F90004E4A93421FD07B684D4A934219D07B68BA
:102FA0004C4A934213D07B684B4A93420DD07B68C6
:102FB0004A4A934207D07B68494A934201D106238B
:102FC0000CE007230AE0052308E0042306E00323BE
:102FD00004E0022302E0012300E000237A6902F00A
:102FE0000302920093403A6913433B6136497B697F
:102FF0009B0802333A6941F823203A4B1B683B6136
:10300000FB68DB433A6913403B613B685B6803F450
:103010008033002B03D03A69FB6813433B61314A8C
:103020003B6913602F4B5B683B61FB68DB433A698C
:1030300013403B613B685B6803F40033002B03D013
:103040003A69FB6813433B61264A3B695360254B51
:103050009B683B61FB68DB433A6913403B613B681B
:103060005B6803F48013002B03D03A69FB681343B9
:103070003B611C4A3B6993601A4BDB683B61FB6810
:10308000DB433A6913403B613B685B6803F4001320
:10309000002B03D03A69FB6813433B61114A3B693B
:1030A000D3607B6901337B613B681A687B6922FAD4
:1030B00003F3002B7FF478AE00BF1C37BD465DF8EC
:1030C000047B7047001002400000014000040048EB
:1030D00000080048000C0048001000480014004898
:1030E000001800480004014080B483B000AF78604D
:1030F0000B467B8013467B707B78002B03D07A884D
:103100007B689A6102E07A887B689A6200BF0C371C
:10311000BD465DF8047B704780B582B000AF786033
:103120007B68002B01D1012343E07B6893F8693071
:10313000DBB2002B06D17B68002283F86820786818
:10314000FDF7B6FD7B68242283F869207B681B6845
:103150007A681268126822F001021A60786800F03A
:103160007BFA0346012B01D1012322E07B685B6AD5
:10317000002B02D0786800F093FD7B681B687A68AA
:103180001268526822F490425A607B681B687A6821
:103190001268926822F02A029A607B681B687A683B
:1031A0001268126842F001021A60786800F01AFE94
:1031B000034618460837BD4680BD80B588B002AFCB
:1031C000F860B9603B601346FB8000237B61FB68BD
:1031D00093F86930DBB2202B77D1BB68002B02D08B
:1031E000FB88002B01D1012370E0FB6893F8683065
:1031F000012B01D1022369E0FB68012283F86820DA
:10320000FB680022DA66FB68212283F8692001F05E
:1032100055FD7861FB68FA88A3F85020FB68FA88AE
:10322000A3F8522034E0FB68B3F852309BB2013B64
:103230009AB2FB68A3F852203B6800937B69002296
:103240008021F86800F017FE0346002B01D003230D
:103250003CE0FB689B68B3F5805F11D1FB681B699C
:10326000002B0DD1BB683B61FB681B683A69128873
:10327000C2F3080292B21A85BB680233BB6007E052
:10328000FB681A68BB68591CB9601B789BB2138530
:10329000FB68B3F852309BB2002BC4D13B6800935B
:1032A0007B6900224021F86800F0E5FD0346002B11
:1032B00001D003230AE0FB68202283F86920FB6821
:1032C000002283F86820002300E002231846183704
:1032D000BD4680BD80B485B000AFF860B9601346CC
:1032E000FB80FB6893F86A30DBB2202B72D1BB689D
:1032F000002B02D0FB88002B01D101236BE0FB687F
:1033000093F86830012B01D1022364E0FB680122AD
:1033100083F86820FB68BA685A65FB68FA88A3F8E6
:103320005820FB68FA88A3F85A20FB689B68B3F51D
:10333000805F0ED1FB681B69002B05D1FB6840F252
:10334000FF12A3F85C2028E0FB68FF22A3F85C20B2
:1033500023E0FB689B68002B0DD1FB681B69002BE9
:1033600004D1FB68FF22A3F85C2016E0FB687F22F3
:10337000A3F85C2011E0FB689B68B3F1805F0CD17F
:10338000FB681B69002B04D1FB687F22A3F85C203B
:1033900003E0FB683F22A3F85C20FB680022DA66AA
:1033A000FB68222283F86A20FB68002283F86820E9
:1033B000FB681B68FA681268926842F001029A6022
:1033C000FB681B68FA681268126842F490721A600F
:1033D000002300E0022318461437BD465DF8047B45
:1033E0007047000080B586B000AF78607B681B68CE
:1033F000DB697B617B681B681B683B617B6903F051
:103400000F03FB60FB68002B0DD17B6903F02003E9
:10341000002B08D03B6903F02003002B03D0786811
:1034200000F017FEFEE07B681B689B68BB60FB68D2
:10343000002B00F0BA80BB6803F00103002B05D11C
:103440003B6903F49073002B00F0AF807B6903F0BD
:103450000103002B0ED03B6903F48073002B09D0CD
:103460007B681B6801221A627B68DB6E43F00102F5
:103470007B68DA667B6903F00203002B0ED0BB6821
:1034800003F00103002B09D07B681B6802221A623B
:103490007B68DB6E43F004027B68DA667B6903F0CD
:1034A0000403002B0ED0BB6803F00103002B09D0EE
:1034B0007B681B6804221A627B68DB6E43F00202A1
:1034C0007B68DA667B6903F00803002B13D03B6945
:1034D00003F02003002B04D1BB6803F00103002B91
:1034E00009D07B681B6808221A627B68DB6E43F098
:1034F00008027B68DA667B68DB6E002B00F0918047
:103500007B6903F02003002B07D03B6903F0200305
:10351000002B02D0786800F09CFD7B68DB6E03F026
:103520000803002B06D17B681B689B6803F04003EF
:10353000402B31D1786800F0E8FC7B681B689B6801
:1035400003F04003402B23D17B681B687A68126824
:10355000926822F040029A607B685B6E002B13D069
:103560007B685B6E314A9A637B685B6E1846FFF737
:10357000CFFB0346002B16D07B685B6E9B6B7A6893
:10358000526E104698470EE0786800F05BF80AE04B
:10359000786800F057F806E0786800F053F87B6828
:1035A0000022DA663DE000BF3BE07B681B689B6859
:1035B000BB607B6903F48013002B15D0BB6803F458
:1035C0008003002B10D07B681B684FF480121A62B6
:1035D0007B68202283F869207B68202283F86A2098
:1035E000786801F026F91DE07B6903F08003002B69
:1035F00008D03B6903F08003002B03D0786800F00B
:10360000B8FC0FE07B6903F04003002B0AD03B6954
:1036100003F04003002B05D0786800F002FD00BFE6
:1036200000E000BF1837BD4680BD00BF473F00081F
:1036300080B483B000AF786000BF0C37BD465DF842
:10364000047B704780B483B000AF786000BF0C3754
:10365000BD465DF8047B70472DE9B04386B000AFEE
:10366000786000237B611023FB740023BB8100235F
:103670003B820023FB737B689A687B681B691A4353
:103680007B685B691A437B68DB6913437B617B68FA
:103690001A687B681B681968AB4B0B4079690B4350
:1036A00013607B681B687A681268526822F4405184
:1036B0007A68D2680A435A607B689B697B617B6841
:1036C0001B68A24A934204D07B681B6A7A69134341
:1036D0007B617B681B687A681268926822F43061AB
:1036E0007A690A439A607B681B68994A934221D1A0
:1036F000984BD3F8883003F00303032B16D801A2AC
:1037000052F823F015370008213700081B3700084E
:10371000273700080123FB74E4E00223FB74E1E097
:103720000423FB74DEE00823FB74DBE01023FB744E
:1037300000BFD7E07B681B68874A934234D1854B32
:10374000D3F8883003F00C030C2B29D801A252F8CF
:1037500023F000BF89370008A1370008A13700080F
:10376000A137000895370008A1370008A1370008E5
:10377000A13700088F370008A1370008A1370008DB
:10378000A13700089B3700080023FB74AAE002233E
:10379000FB74A7E00423FB74A4E00823FB74A1E0FE
:1037A0001023FB7400BF9DE07B681B686B4A93424B
:1037B00020D1684BD3F8883003F03003102B0FD0A2
:1037C000102B02D8002B05D010E0202B05D0302B79
:1037D00009D00BE00023FB7484E00223FB7481E03A
:1037E0000423FB747EE00823FB747BE01023FB744E
:1037F00000BF77E07B681B68594A934220D1554B44
:10380000D3F8883003F0C003402B0FD0402B02D8F0
:10381000002B05D010E0802B05D0C02B09D00BE089
:103820000023FB745EE00223FB745BE00423FB7463
:1038300058E00823FB7455E01023FB7400BF51E0EF
:103840007B681B68474A934224D1424BD3F88830A7
:1038500003F44073B3F5807F12D0B3F5807F02D8B4
:10386000002B07D012E0B3F5007F06D0B3F5407F00
:1038700009D00BE00023FB7434E00223FB7431E039
:103880000423FB742EE00823FB742BE01023FB744D
:1038900000BF27E07B681B682C4A934223D12D4B45
:1038A000D3F8883003F44063B3F5806F12D0B3F5DA
:1038B000806F02D8002B07D012E0B3F5006F06D05E
:1038C000B3F5406F09D00BE00023FB740AE002233C
:1038D000FB7407E00423FB7404E00823FB7401E09D
:1038E0001023FB7400BF7B681B68184A934240F0AA
:1038F000F08000237B61FB7C082B37D801A252F8B3
:1039000023F000BF293900086D390008313900085B
:103910006D390008373900086D3900086D39000825
:103920006D3900083F390008FFF74CF9786120E055
:103930000D4B7B611DE0FFF73FF8786119E04FF414
:1039400000437B6115E000BFF369FFEF008000409A
:103950000038014000100240004400400048004090
:10396000004C0040005000400024F4000123FB7391
:1039700000BF7B69002B00F08A817B685A68134680
:103980005B001A447B699A4205D87B685B681A031E
:103990007B699A4202D20123FB7378E1FB7C082BFE
:1039A00000F2848001A252F823F000BFD139000850
:1039B000AD3A0008113A0008AD3A0008453A00084F
:1039C000AD3A0008AD3A0008AD3A0008833A000865
:1039D000FFF7F8F803464FF000044FEA042949EADC
:1039E00013694FEA03287B685B685B084FF00004AB
:1039F00018EB030049EB04017B685B684FF000049F
:103A00001A462346FDF77CF803460C467B6150E0DE
:103A10007B685B685B084FF00004A0494FF0000230
:103A200013EB010844EB0209404649467B685B689A
:103A30004FF000041A462346FDF762F803460C4691
:103A40007B6136E0FEF7B8FF03461A464FF00003ED
:103A50001D0245EA126514027B685B685B081A4622
:103A60004FF00003A01845EB03017B685B684FF043
:103A700000041A462346FDF743F803460C467B61D3
:103A800017E07B685B685B084FF0000413F50000EB
:103A900044F100017B685B684FF000041A4623463E
:103AA000FDF72EF803460C467B6102E00123FB7311
:103AB00000BF7B69B3F5407F08D37B69B3F5801FF6
:103AC00004D27B681B687A69DA60E0E00123FB734B
:103AD000DDE07B68DB69B3F5004F6ED1FB7C082B22
:103AE00056D801A252F823F00D3B0008293B0008EC
:103AF000453B0008913B00085F3B0008913B0008F4
:103B0000913B0008913B00087B3B0008FFF75AF807
:103B100003465A007B685B685B081A447B685B68F5
:103B2000B2FBF3F33B8236E0FFF76EF803465A0030
:103B30007B685B685B081A447B685B68B2FBF3F3E5
:103B40003B8228E07B685B685B0803F1F47303F554
:103B500090437A685268B3FBF2F33B821BE0FEF7B6
:103B60002BFF03465A007B685B685B081A447B683E
:103B70005B68B2FBF3F33B820DE07B685B685B083C
:103B800003F580327B685B68B2FBF3F33B8202E0B3
:103B90000123FB7300BF3B8A23F00F03BB813B8AE9
:103BA0005B109BB203F007039AB2BB891343BB813E
:103BB0007B681B68BA89DA6069E0FB7C082B63D8F4
:103BC00001A252F823F000BFED3B00080D3C0008B5
:103BD0002D3C0008893C00084D3C0008893C000849
:103BE000893C0008893C00086D3C00087B681C6823
:103BF000FEF7E8FF02467B685B685B081A447B6857
:103C00005B68B2FBF3F39BB2E36040E07B681C6847
:103C1000FEF7FAFF02467B685B685B081A447B6824
:103C20005B68B2FBF3F39BB2E36030E07B681A6839
:103C30007B685B685B0803F5740303F510537968D0
:103C40004968B3FBF1F39BB2D36020E07B681C684A
:103C5000FEF7B2FE02467B685B685B081A447B682D
:103C60005B68B2FBF3F39BB2E36010E07B681B6818
:103C70007A685268520802F500417A685268B1FBCE
:103C8000F2F292B2DA6002E00123FB7300BFFB7B29
:103C900018461837BD46BDE8B08300BF000024F4C5
:103CA00080B483B000AF78607B685B6A03F0010387
:103CB000002B0AD07B681B687A681268526822F46D
:103CC00000317A68926A0A435A607B685B6A03F043
:103CD0000203002B0AD07B681B687A68126852685E
:103CE00022F480317A68D26A0A435A607B685B6A40
:103CF00003F00403002B0AD07B681B687A68126803
:103D0000526822F480217A68126B0A435A607B68F9
:103D10005B6A03F00803002B0AD07B681B687A6893
:103D20001268526822F400417A68526B0A435A6062
:103D30007B685B6A03F01003002B0AD07B681B686A
:103D40007A681268926822F480517A68926B0A430A
:103D50009A607B685B6A03F02003002B0AD07B68C3
:103D60001B687A681268926822F400517A68D26BF4
:103D70000A439A607B685B6A03F04003002B1AD009
:103D80007B681B687A681268526822F480117A682E
:103D9000126C0A435A607B681B6CB3F5801F0AD112
:103DA0007B681B687A681268526822F4C0017A68DE
:103DB000526C0A435A607B685B6A03F08003002BF5
:103DC0000AD07B681B687A681268526822F4002166
:103DD0007A68926C0A435A6000BF0C37BD465DF8A2
:103DE000047B704780B586B002AF78600023FB602B
:103DF0007B680022DA6600F061FFF8607B681B6870
:103E00001B6803F00803082B0ED16FF07E4300936C
:103E1000FB6800224FF40011786800F02CF803468C
:103E2000002B01D0032322E07B681B681B6803F092
:103E30000403042B0ED16FF07E430093FB68002235
:103E40004FF48001786800F016F80346002B01D08B
:103E500003230CE07B68202283F869207B68202202
:103E600083F86A207B68002283F8682000231846C4
:103E70001037BD4680BD80B584B000AFF860B96032
:103E80003B601346FB712CE0BB69B3F1FF3F28D0C8
:103E9000BB69002B07D000F011FF02463B68D21A25
:103EA000BB699A421DD9FB681B68FA6812681268E0
:103EB00022F4D0721A60FB681B68FA681268926874
:103EC00022F001029A60FB68202283F86920FB68D7
:103ED000202283F86A20FB68002283F868200323ED
:103EE0000FE0FB681B68DA69BB681A40BB689A423E
:103EF0000CBF01230023DBB21A46FB799A42C3D0E0
:103F0000002318461037BD4680BD80B483B000AF93
:103F100078607B681B687A681268126822F4907275
:103F20001A607B681B687A681268926822F0010246
:103F30009A607B68202283F86A2000BF0C37BD4658
:103F40005DF8047B704780B584B000AF78607B6813
:103F50009B6AFB60FB680022A3F85A20FB680022E2
:103F6000A3F85220F868FFF76DFB00BF1037BD467D
:103F700080BD80B485B000AF78607B6893F869300D
:103F8000DBB2212B46D17B68B3F852309BB2002BB9
:103F900011D17B681B687A681268126822F080026F
:103FA0001A607B681B687A681268126842F04002E7
:103FB0001A6000232FE07B689B68B3F5805F14D103
:103FC0007B681B69002B10D17B68DB6CFB607B6816
:103FD0001B68FA681288C2F3080292B21A857B68DD
:103FE000DB6C9A1C7B68DA6409E07B681A687B6882
:103FF000DB6C581C7968C8641B789BB213857B689E
:10400000B3F852309BB2013B9AB27B68A3F85220BE
:10401000002300E0022318461437BD465DF8047BF8
:10402000704780B582B000AF78607B681B687A68A3
:104030001268126822F040021A607B68202283F81E
:1040400069207868FFF7F4FA002318460837BD4660
:1040500080BD80B584B000AF78607B68B3F85C3019
:10406000FB817B6893F86A30DBB2222B4ED17B68F0
:104070001B689B8CBB817B689B68B3F5805F12D10A
:104080007B681B69002B0ED17B685B6DBB60BA89B6
:10409000FB8913409AB2BB681A807B685B6D9A1CDF
:1040A0007B685A650BE07B685B6D591C7A685165CB
:1040B000BA89D1B2FA89D2B20A40D2B21A707B68F8
:1040C000B3F85A309BB2013B9BB27A681946A2F80A
:1040D0005A10002B18D17B681B687A681268126826
:1040E00022F490721A607B681B687A681268926882
:1040F00022F001029A607B68202283F86A207868A7
:10410000FDF7E4F800230CE000230AE07B681B685D
:104110007A681268128B92B242F0080292B21A8345
:10412000022318461037BD4680BD80B582B000AF6F
:1041300078607B68002B01D101231DE07B6893F838
:104140003930DBB2002B06D17B68002283F838209F
:104150007868FDF761FB7B68022283F839207B6871
:104160001A687B6804331946104600F025FA7B680C
:10417000012283F83920002318460837BD4680BD48
:1041800080B582B000AF78607B681B681B6903F064
:104190000203022B22D17B681B68DB6803F0020359
:1041A000022B1BD17B681B686FF002021A617B68CF
:1041B00001221A767B681B689B6903F00303002BBE
:1041C00003D0786800F0DAF905E0786800F0CCF9FF
:1041D000786800F0DDF97B6800221A767B681B683E
:1041E0001B6903F00403042B22D17B681B68DB6886
:1041F00003F00403042B1BD17B681B686FF00402DF
:104200001A617B6802221A767B681B689B6903F43B
:104210004073002B03D0786800F0B0F905E07868AF
:1042200000F0A2F9786800F0B3F97B6800221A76F2
:104230007B681B681B6903F00803082B22D17B688D
:104240001B68DB6803F00803082B1BD17B681B6825
:104250006FF008021A617B6804221A767B681B687B
:10426000DB6903F00303002B03D0786800F086F9C4
:1042700005E0786800F078F9786800F089F97B68E3
:1042800000221A767B681B681B6903F01003102B51
:1042900022D17B681B68DB6803F01003102B1BD155
:1042A0007B681B686FF010021A617B6808221A761F
:1042B0007B681B68DB6903F44073002B03D07868CC
:1042C00000F05CF905E0786800F04EF9786800F0DD
:1042D0005FF97B6800221A767B681B681B6903F014
:1042E0000103012B0ED17B681B68DB6803F001031F
:1042F000012B07D17B681B686FF001021A61786897
:1043000000F028F97B681B681B6903F08003802B91
:104310000ED17B681B68DB6803F08003802B07D11C
:104320007B681B686FF080021A61786800F084FC7B
:104330007B681B681B6903F04003402B0ED17B6830
:104340001B68DB6803F04003402B07D17B681B68C8
:104350006FF040021A61786800F024F97B681B68EE
:104360001B6903F02003202B0ED17B681B68DB68E0
:1043700003F02003202B07D17B681B686FF020021D
:104380001A61786800F04EFC00BF0837BD4680BD5A
:1043900080B584B000AF786039600023FB607B6833
:1043A00093F83830012B01D10223CFE07B68012242
:1043B00083F838207B68022283F839207B681B68E9
:1043C0009B68FB60FB6823F4803323F07703FB607A
:1043D000FB6823F47F43FB607B681B68FA689A6084
:1043E0003B681B68402B7CD0402B0FD8102B00F073
:1043F0008F80102B03D8002B00F083809DE0202BB2
:1044000000F08D80302B00F0918096E0702B18D05A
:10441000702B04D8502B44D0602B52D08DE0B3F5D4
:10442000805F03D0B3F5005F28D086E07B681A6810
:104430007B681B689B6823F4803323F00703936039
:104440007BE07B6818683B6899683B685A683B6802
:10445000DB6800F0CCF97B681B689B68FB60FB683D
:1044600023F4803323F07703FB60FB6843F077038A
:10447000FB607B681B68FA689A605EE07B6818687E
:104480003B6899683B685A683B68DB6800F0AFF9A5
:104490007B681B687A681268926842F480429A606E
:1044A0004BE07B6818683B6859683B68DB681A46D4
:1044B00000F016F97B681B685021184600F077F968
:1044C0003BE07B6818683B6859683B68DB681A46C4
:1044D00000F039F97B681B686021184600F067F925
:1044E0002BE07B6818683B6859683B68DB681A46B4
:1044F00000F0F6F87B681B684021184600F057F979
:104500001BE07B681B680021184600F050F914E09E
:104510007B681B681021184600F049F90DE07B68A4
:104520001B682021184600F042F906E07B681B68F2
:104530003021184600F03BF900BF7B68012283F868
:1045400039207B68002283F8382000231846103772
:10455000BD4680BD80B483B000AF786000BF0C372B
:10456000BD465DF8047B704780B483B000AF7860CF
:1045700000BF0C37BD465DF8047B704780B483B044
:1045800000AF786000BF0C37BD465DF8047B704714
:1045900080B483B000AF786000BF0C37BD465DF8D3
:1045A000047B704780B483B000AF786000BF0C37E5
:1045B000BD465DF8047B704780B485B000AF78607D
:1045C00039600023FB607B681B68FB607B683C4AAA
:1045D000934213D07B68B3F1804F0FD07B68394A88
:1045E00093420BD07B68384A934207D07B68374AA6
:1045F000934203D07B68364A934208D1FB6823F08C
:104600007003FB603B685B68FA681343FB607B6880
:104610002B4A93421FD07B68B3F1804F1BD07B683D
:10462000284A934217D07B68274A934213D07B686D
:10463000264A93420FD07B68254A93420BD07B6871
:10464000244A934207D07B68234A934203D07B6875
:10465000224A934208D1FB6823F44073FB603B6815
:10466000DB68FA681343FB607B68FA681A603B6892
:104670009A687B68DA623B681A687B689A627B6832
:104680000F4A93420FD07B68114A93420BD07B684C
:10469000104A934207D07B680F4A934203D07B684D
:1046A0000E4A934203D13B681A697B681A637B68A0
:1046B00001225A6100BF1437BD465DF8047B704784
:1046C000002C01400004004000080040000C0040A5
:1046D00000340140004001400044014000480140D6
:1046E00080B487B000AFF860B9607A6000237B6166
:1046F00000233B61FB681B6A3B61FB681B6A23F07C
:104700000102FB681A62FB689B697B617B6923F08D
:10471000F0037B617B681B017A6913437B613B6912
:1047200023F00A033B613A69BB6813433B61FB68B2
:104730007A699A61FB683A691A6200BF1C37BD4604
:104740005DF8047B704780B487B000AFF860B96053
:104750007A6000237B6100233B61FB681B6A23F0C6
:104760001002FB681A62FB689B697B61FB681B6A2D
:104770003B617B6923F470437B617B681B037A692F
:1047800013437B613B6923F0A0033B61BB681B01C2
:104790003A6913433B61FB687A699A61FB683A693D
:1047A0001A6200BF1C37BD465DF8047B704780B4B9
:1047B00085B000AF78600B467B800023FB607B6890
:1047C0009B68FB60FB6823F07003FB607B8843F011
:1047D00007039BB21A46FB681343FB607B68FA68C9
:1047E0009A6000BF1437BD465DF8047B704780B403
:1047F00087B000AFF860B9607A603B6000237B61EE
:10480000FB689B687B617B6923F47F437B613B682A
:104810001A027B681A43BB6813437A6913437B61AE
:10482000FB687A699A6000BF1C37BD465DF8047B5F
:10483000704780B483B000AF786000BF0C37BD46CE
:104840005DF8047B7047000080B400AF044B1B6828
:1048500003F4C0631846BD465DF8047B704700BF93
:104860000070004080B485B000AF78600023FB602A
:104870007B68B3F5007F2FD1224B1B6803F4C06324
:10488000B3F5007F37D01F4A1E4B1B6823F4C0636B
:1048900043F4007313601C4B1B681C4AA2FB0323E8
:1048A0009B0C322202FB03F3FB6002E0FB68013B3E
:1048B000FB60FB68002B06D0124B5B6903F480633E
:1048C000B3F5806FF2D00F4B5B6903F48063B3F5EF
:1048D000806F10D103230FE00A4B1B6803F4C06301
:1048E000B3F5806F07D0074A064B1B6823F4C063FB
:1048F00043F480631360002318461437BD465DF807
:10490000047B7047007000400000002083DE1B43E2
:1049100080B485B000AF78607B6803F00703FB606C
:104920000C4BDB68BB60BA684FF6FF031340BB60FB
:10493000FB681A02BB68134343F0BF6343F40033C0
:10494000BB60044ABB68D36000BF1437BD465DF846
:10495000047B704700ED00E080B400AF044BDB68DF
:104960001B0A03F007031846BD465DF8047B704739
:1049700000ED00E080B483B000AF0346FB7109494D
:1049800097F907305B09FA7902F01F02012000FA5B
:1049900002F241F8232000BF0C37BD465DF8047BCE
:1049A000704700BF00E100E080B483B000AF034671
:1049B0003960FB7197F90730002B0BDA0D49FB7951
:1049C00003F00F03043B3A68D2B21201D2B20B4497
:1049D0001A7609E0084997F907303A68D2B212010D
:1049E000D2B20B4483F8002300BF0C37BD465DF8FC
:1049F000047B704700ED00E000E100E080B489B086
:104A000000AFF860B9607A60FB6803F00703FB61F0
:104A1000FB69C3F10703042B28BF0423BB61FB69B7
:104A20000433062B02D9FB69033B00E000237B61C2
:104A30000122BB6902FA03F35A1EBB681A407B6964
:104A40009A4001217B6901FA03F3591E7B680B40F0
:104A5000134318462437BD465DF8047B70470000B9
:104A600080B582B000AF78607B68013BB3F1807F96
:104A700001D301230FE00A4A7B68013B53600F21F9
:104A80004FF0FF30FFF790FF054B00229A60044B78
:104A900007221A60002318460837BD4680BD00BFB4
:104AA00010E000E080B582B000AF78607868FFF772
:104AB0002FFF00BF0837BD4680BD80B586B000AF70
:104AC0000346B9607A60FB7300237B61FFF744FF04
:104AD00078617A68B9687869FFF790FF024697F9BC
:104AE0000F3011461846FFF75FFF00BF1837BD466D
:104AF00080BD80B582B000AF0346FB7197F90730E7
:104B00001846FFF737FF00BF0837BD4680BD80B5A8
:104B100082B000AF78607868FFF7A2FF03461846BE
:104B20000837BD4680BD000080B483B000AF786018
:104B30007B68042B06D1094A084B1B6843F0040329
:104B4000136005E0054A054B1B6823F0040313605E
:104B500000BF0C37BD465DF8047B704710E000E0F5
:104B600080B500AF00F002F800BF80BD80B400AF98
:104B700000BFBD465DF8047B7047000080B485B07F
:104B800000AF786039607B6893F83830012B01D131
:104B900002233DE07B68012283F838207B681B6894
:104BA0005B68FB607B681B689B68BB607B681B68FD
:104BB0001A4A934204D07B681B68194A934208D171
:104BC000FB6823F47003FB603B685B68FA6813437F
:104BD000FB60FB6823F07003FB603B681B68FA68AE
:104BE0001343FB60BB6823F08003BB603B689B689A
:104BF000BA681343BB607B681B68FA685A607B68BD
:104C00001B68BA689A607B68002283F8382000230A
:104C100018461437BD465DF8047B7047002C0140F0
:104C20000034014080B483B000AF786000BF0C371F
:104C3000BD465DF8047B704780B483B000AF7860F8
:104C400000BF0C37BD465DF8047B704780B500AFF0
:104C50000320FFF727FF002000F006F8FBF7B6FF60
:104C60000023184680BD000080B582B000AF786098
:104C7000094B1B68094AA2FB03239B091846FFF74F
:104C800046FF002279684FF0FF30FFF716FF002340
:104C900018460837BD4680BD00000020D34D621085
:104CA00080B400AF044B1B680133034A136000BF9C
:104CB000BD465DF8047B70471014002080B400AF3F
:104CC000034B1B681846BD465DF8047B704700BF68
:104CD0001014002080B586B000AF786000237B619F
:104CE0000023FB600023FB740023BB747B681B68FC
:104CF00003F40063002B3FD07B685B6EB3F5800F3D
:104D00001CD0B3F5800F02D8002B0ED01FE0B3F5F6
:104D1000000F03D0B3F5400F1CD018E0824A824B3D
:104D2000DB6843F48033D36015E07B6804330021F3
:104D3000184600F0B3FA0346FB740CE07B6820339E
:104D40000021184600F0FEFB0346FB7403E001233C
:104D5000FB7400E000BFFB7C002B0BD17249724B4F
:104D6000D3F8883023F440027B685B6E1343C1F8AC
:104D7000883001E0FB7CBB747B681B6803F48053C4
:104D8000002B3FD07B689B6EB3F1807F1CD0B3F1CA
:104D9000807F02D8002B0ED01FE0B3F1007F03D03C
:104DA000B3F1407F1CD018E05F4A5F4BDB6843F4EF
:104DB0008033D36015E07B6804330021184600F08F
:104DC0006DFA0346FB740CE07B6820330021184623
:104DD00000F0B8FB0346FB7403E00123FB7400E022
:104DE00000BFFB7C002B0BD14F494F4BD3F88830D1
:104DF00023F040727B689B6E1343C1F8883001E05A
:104E0000FB7CBB747B681B6803F40033002B00F051
:104E10009A8000237B74444B9B6D03F08053002BDE
:104E20000DD1414A404B9B6D43F0805393653E4BFF
:104E30009B6D03F08053BB60BB6801237B743B4ACE
:104E40003A4B1B6843F480731360FFF737FFF86039
:104E500009E0FFF733FF0246FB68D31A022B02D9A1
:104E60000323FB7405E0314B1B6803F48073002BB4
:104E7000EFD0FB7C002B5BD12B4BD3F8903003F4AD
:104E800040737B617B69002B1FD07B68D3F8842043
:104E90007B699A4219D0244BD3F8903023F44073A5
:104EA0007B61214A204BD3F8903043F48033C2F821
:104EB00090301D4A1C4BD3F8903023F48033C2F855
:104EC0009030194A7B69C2F890307B6903F0010386
:104ED000002B16D0FFF7F2FEF8600BE0FFF7EEFEB6
:104EE0000246FB68D31A41F28832934202D9032367
:104EF000FB7406E00C4BD3F8903003F00203002B58
:104F0000ECD0FB7C002B0CD10749074BD3F8903039
:104F100023F440727B68D3F884301343C1F8903097
:104F200008E0FB7CBB7405E000100240007000400C
:104F3000FB7CBB747B7C012B05D19E4A9D4B9B6DFA
:104F400023F0805393657B681B6803F00103002BFB
:104F50000AD09849974BD3F8883023F003027B6836
:104F60009B6B1343C1F888307B681B6803F0020316
:104F7000002B0AD08F498F4BD3F8883023F00C02D6
:104F80007B68DB6B1343C1F888307B681B6803F0D8
:104F90000403002B0AD08749864BD3F8883023F0CE
:104FA00030027B681B6C1343C1F888307B681B6838
:104FB00003F00803002B0AD07E497E4BD3F88830DB
:104FC00023F0C0027B685B6C1343C1F888307B68B8
:104FD0001B6803F01003002B0AD07649754BD3F8F9
:104FE000883023F440727B689B6C1343C1F888308F
:104FF0007B681B6803F02003002B0AD06D496D4BC2
:10500000D3F8883023F440627B68DB6C1343C1F82B
:1050100088307B681B6803F40073002B0AD0654955
:10502000644BD3F8883023F440227B68DB6D134354
:10503000C1F888307B681B6803F48063002B0AD0BA
:105040005C495C4BD3F8883023F440127B681B6EBC
:105050001343C1F888307B681B6803F04003002BC2
:105060000AD05449534BD3F8883023F440527B681C
:105070001B6D1343C1F888307B681B6803F0800305
:10508000002B0AD04B494B4BD3F8883023F44042D5
:105090007B685B6D1343C1F888307B681B6803F441
:1050A0008073002B0AD04349424BD3F8883023F455
:1050B00040327B689B6D1343C1F888307B681B6866
:1050C00003F40053002B28D03A493A4BD3F88830E8
:1050D00023F040627B68DB6E1343C1F888307B6845
:1050E000DB6EB3F1006F06D1324A324BDB6843F41A
:1050F0008013D36011E07B68DB6EB3F1806F0CD15D
:105100007B6804330121184600F0C8F80346FB749D
:10511000FB7C002B01D0FB7CBB747B681B6803F419
:105120000023002B28D02349224BD3F8883023F0CA
:1051300040627B681B6F1343C1F888307B681B6F2C
:10514000B3F1006F06D11B4A1A4BDB6843F480139E
:10515000D36011E07B681B6FB3F1806F0CD17B686B
:1051600004330121184600F099F80346FB74FB7CD8
:10517000002B01D0FB7CBB747B681B6803F480238D
:10518000002B2BD00B490B4BD3F8883023F0406217
:105190007B685B6F1343C1F888307B685B6FB3F14A
:1051A000006F09D1034A034BDB6843F48013D360DB
:1051B00014E000BF001002407B685B6FB3F1806FAA
:1051C0000CD17B6804330121184600F067F80346D0
:1051D000FB74FB7C002B01D0FB7CBB747B681B68E1
:1051E00003F48043002B2FD02B492B4BD3F888306E
:1051F00023F040527B689B6F1343C1F888307B6873
:105200009B6FB3F1805F0DD17B6804330221184698
:1052100000F044F80346FB74FB7C002B14D0FB7CAD
:10522000BB7411E07B689B6FB3F1005F0CD17B68AE
:1052300020330221184600F085F90346FB74FB7CFD
:10524000002B01D0FB7CBB747B681B6803F400431C
:10525000002B0AD01049104BD3F8883023F080423D
:105260007B68DB6F1343C1F888307B681B6803F4ED
:105270008033002B0BD00849074BD3F8883023F03C
:1052800000427B68D3F880301343C1F88830BB7C80
:1052900018461837BD4680BD0010024090B595B045
:1052A00000AF786039600023BB64002387F84F307B
:1052B000A34BDB6803F00303002B23D0A04BDB6878
:1052C00003F003027B681B689A4217D17B681B6856
:1052D000002B13D09A4BDB6803F0700270237B64C1
:1052E0007B6C93FAA3F33B643B6CB3FA83F322FA2F
:1052F00003F35A1C7B685B689A4254D0012387F8F9
:105300004F3050E07B681B68022B0DD0032B15D06B
:10531000012B23D18A4B1B6803F00203002B21D100
:10532000012387F84F301DE0854B1B6803F4806331
:10533000002B19D1012387F84F3015E0804B1B68F3
:1053400003F40033002B11D17D4B1B6803F4802341
:10535000002B0BD1012387F84F3007E0012387F89A
:105360004F3004E000BF02E000BF00E000BF97F84C
:105370004F30002B17D1724C714BDB6823F0730256
:105380007B6819687B685B68581E7023FB63FB6B46
:1053900093FAA3F3BB63BB6BB3FA83F300FA03F393
:1053A0000B431343E36097F84F30002B40F0C2806B
:1053B000634A634B1B6823F080631360FFF77EFC36
:1053C000B8640AE0FFF77AFC0246BB6CD31A022BE2
:1053D00003D9032387F84F3005E0594B1B6803F0CE
:1053E0000063002BEED197F84F30002B40F0A280E5
:1053F0003B68002B26D1524C514B1B6923F41F33C1
:1054000023F440737A6891684FF4FE42FA62FA6AB4
:1054100092FAA2F2BA62BA6AB2FA82F291407A6859
:10542000D26810094FF400327A637A6B92FAA2F2D2
:105430003A633A6BB2FA82F200FA02F20A43134379
:10544000236151E03B68012B27D13D4C3C4B1B694C
:1054500023F4C00323F4FE437A6891684FF4FE42BC
:10546000FA61FA6992FAA2F2BA61BA69B2FA82F200
:1054700091407A6812695208501E4FF4C0027A6255
:105480007A6A92FAA2F23A623A6AB2FA82F200FABE
:1054900002F20A431343236126E0294C284B1B697F
:1054A00023F0C06323F4FE437A6891684FF4FE4210
:1054B000FA60FA6892FAA2F2BA60BA68B2FA82F2B4
:1054C00091407A6852695208501E4FF0C0627A616A
:1054D0007A6992FAA2F23A613A69B2FA82F200FA71
:1054E00002F20A4313432361154A154B1B6843F02C
:1054F00080631360FFF7E2FBB8640AE0FFF7DEFBAE
:105500000246BB6CD31A022B03D9032387F84F3012
:1055100005E00B4B1B6803F00063002BEED097F8FF
:105520004F30002B06D10649054B1A697B689B69F1
:1055300013430B6197F84F3018465437BD4690BD62
:105540000010024090B591B000AF78603960002340
:10555000BB63002387F83F308D4BDB6803F0030308
:10556000002B23D08A4BDB6803F003027B681B68A7
:105570009A4217D17B681B68002B13D0844BDB68E1
:1055800003F0700270237B637B6B93FAA3F33B639E
:105590003B6BB3FA83F322FA03F35A1C7B685B6814
:1055A0009A4254D0012387F83F3050E07B681B6853
:1055B000022B0DD0032B15D0012B23D1744B1B686C
:1055C00003F00203002B21D1012387F83F301DE0B7
:1055D0006F4B1B6803F48063002B19D1012387F8FC
:1055E0003F3015E06A4B1B6803F40033002B11D1E8
:1055F000674B1B6803F48023002B0BD1012387F832
:105600003F3007E0012387F83F3004E000BF02E0AD
:1056100000BF00E000BF97F83F30002B17D15C4C73
:105620005B4BDB6823F073027B6819687B685B68FF
:10563000581E7023FB62FB6A93FAA3F3BB62BB6A3A
:10564000B3FA83F300FA03F30B431343E36097F8D1
:105650003F30002B40F096804D4A4D4B1B6823F0A5
:1056600080531360FFF72AFBB8630AE0FFF726FBBD
:105670000246BB6BD31A022B03D9032387F83F30B2
:1056800005E0434B1B6803F00053002BEED197F865
:105690003F30002B76D13B68002B26D13C4C3C4B55
:1056A0005B6923F41F3323F440737A6891684FF4E5
:1056B000FE42FA61FA6992FAA2F2BA61BA69B2FAE2
:1056C00082F291407A68D26810094FF400327A620F
:1056D0007A6A92FAA2F23A623A6AB2FA82F200FA6C
:1056E00002F20A431343636126E0294C284B5B69AD
:1056F00023F0C06323F4FE437A6891684FF4FE42BE
:10570000FA60FA6892FAA2F2BA60BA68B2FA82F261
:1057100091407A6812695208501E4FF0C0627A6157
:105720007A6992FAA2F23A613A69B2FA82F200FA1E
:1057300002F20A4313436361154A154B1B6843F099
:1057400080531360FFF7BAFAB8630AE0FFF7B6FABE
:105750000246BB6BD31A022B03D9032387F83F30D1
:1057600005E00B4B1B6803F00053002BEED097F8BD
:105770003F30002B06D10649054B5A697B685B69AF
:1057800013434B6197F83F3018464437BD4690BDF0
:1057900000100240DFF834D0002103E00C4B5B58CE
:1057A000435004310B480C4B42189A42F6D30B4A33
:1057B00002E0002342F8043B094B9A42F9D3FCF77C
:1057C0001DFC00F011F8FBF7F3FBFEE70080012061
:1057D00058730008000000207000002070000020B6
:1057E00018140020FEE7000070B50D4E0D4CA41BF0
:1057F000A4100025A54209D10B4E0C4C01F02CFC45
:10580000A41BA4100025A54205D170BD56F8253073
:1058100098470135EEE756F8253098470135F2E70D
:105820004873000848730008487300084C73000868
:1058300002440346934200D1704703F8011BF9E785
:1058400030B500292ED051F8042C0B1F1D49002A19
:10585000B8BF9B180A680C4612B95A600B6030BD7D
:105860009A420CD9186819188A4204BF1168526804
:105870005A6004BF09181960236030BD0A46516898
:1058800009B19942FAD9146815199D420BD11B68C8
:105890002344D0188142136004D108680344136084
:1058A0004B68536030BD02D90C23036030BD1C68C7
:1058B0001819814204BF08684968596004BF00197B
:1058C0001860EEE7E010002070B5CD1C25F0030550
:1058D00008350C2D38BF0C25002D064603DA0C23A5
:1058E0003360002070BDA942F9D81E4804682146E3
:1058F000C9B91D4C23681BB9304600F09BF82060E5
:105900002946304600F096F8431CE8D0C31C23F02B
:105910000304A04205D0211A304600F08BF8013074
:10592000DDD0256007E00A68521B17D40B2A0CD97A
:105930000A608D508C1804F10B00221D20F0070026
:10594000821A0ED05142A15070BD8C420DBF6268C8
:105950004A686260026018BF0C46ECE70C46496872
:10596000C6E770BDE0100020E410002070B50E46C0
:10597000054618B183690BB900F042FAAB69AC680F
:1059800013B9284600F03CFA234B9C4217D16C68AF
:10599000A3891B071DD52369DBB1013EA36816F857
:1059A000011F013BA360E9B9002B2EDA22460A2130
:1059B000284600F073F8013011D00A2070BD174B53
:1059C0009C4201D1AC68E3E7154B9C4208BFEC68F0
:1059D000DEE72146284600F0B3F80028DDD04FF07E
:1059E000FF3070BD002B04DAA269934206DB0A295E
:1059F00004D023685A1C22601970CFE7224628463B
:105A000000F04CF80130C9D1E9E723680A205A1C9C
:105A10002260187070BD00BFC0720008E0720008FC
:105A2000A0720008024B01461868FFF79FBF00BF35
:105A30000400002038B5064C0023054608462360C4
:105A400001F06EF9431C02D1236803B12B6038BD0D
:105A5000141400200EB400B59CB04FF402711DABBD
:105A6000ADF81410029006906FF000410A480491BE
:105A700007914FF6FF7153F8042BADF8161000682C
:105A8000019302A900F002FB029B00221A701CB0D5
:105A90005DF804EB03B0704704000020F8B50E4633
:105AA0001446054618B183690BB900F0A9F9214BDA
:105AB0009C422AD16C68A369A360A3891A072ED5DA
:105AC000236963B323692068C01A6369F6B29842F8
:105AD000374604DB2146284600F028F928BBA36896
